:107E0000112414BE3399EAD082E08093C00088E147
:107E10008093C10096E09093C20090E19093C400DB
:107E2000809360008EE080936000259AD0E0C0E0EF
:107E300098E1C92E28E0B22EAA24A39435E0932E0F
:107E400041E1842E53E0D52EA4D0813481F4A1D019
:107E5000182FABD0123819F484E094D090C01138A8
:107E600019F484E08FD08BC083E08CD088C082343A
:107E700019F484E1A6D083C0853419F485E0A1D03B
:107E80007EC0853549F485D0C82FD0E082D0D82B6C
:107E9000CC0FDD1F8AD073C0863529F484E091D0E1
:107EA00080E070D06CC0843609F03FC072D071D0D1
:107EB000782E6FD000E011E0C11580E7D80730F4CC
:107EC000FE01D7BEE89500E011E000C078010F5F29
:107ED0001F4F5FD0F70180837012F8CFC115F0E714
:107EE000DF0718F0FE01D7BEE8955FD007B600FCAB
:107EF000FDCFAE01A0E0B1E08C919D011296F90199
:107F00009181FA010C01A7BEE89511244E5F5F4FE5
:107F1000A038F1E0BF0781F7FE0197BEE89507B6EC
:107F200000FCFDCF87BEE8952AC08437A9F431D084
:107F300030D0182F2ED039D07E010C2F010FF70131
:107F40008FEFE81AF80A84911DD00E11F8CF219610
:107F50001150C10FD11D13C0853741F426D08EE1D9
:107F600011D085E90FD08FE00DD009C0813531F4F3
:107F7000C0926000B092600018D001C016D080E1BD
:107F800001D062CF9091C00095FFFCCF8093C600D6
:107F900008958091C00087FFFCCF8091C00084FDD0
:107FA00001C0A8958091C6000895F3DF803239F0B2
:107FB00088E18093600088E080936000FFCF84E1D7
:107FC000E1CFCF93C82FE5DFC150E9F7CF91EDCFD7
:107FD000E0E6F0E098E1908380830895E0E6F0E049
:0C7FE00088E180831082EE27FF270994BF
:027FFE00040479
:0400000300007E007B
:00000001FF
